:03000000020C12DD
:10080000752200752301E4F524F525F526F527F575
:1008100028F529F52AF52BF52CF52DF52EF52FF5D4
:1008200030F531F532F533F534F535F536F537C2B7
:10083000A553890F43890175A00375900FE5906456
:100840000F7003020A627F647E00120CAAE59064B6
:100850000F7003020A62E5327025E53314600E144E
:10086000601314601424037016D2A28002C2A2D2B4
:10087000A3D2A4800AD2A28002C2A2C2A3D2A4752B
:10088000900FAF90EF24F5601224FE601614601BE9
:100890002407701DE4F510F5118016751000751110
:1008A00001800E751000751102800675100075111B
:1008B000037590F0AF90EF2450601424E06014248E
:1008C000F060142470701B85101085111180137452
:1008D00004800674088002740C2511F511E43510AB
:1008E000F510AF33EF25E0241AF8A61008A611E59D
:1008F0002D6401452C701AEF25E02412F8E6FE085D
:10090000E6B5110DE510B506080525E525700205CB
:1009100024E52B6401452A700CE53325E02412F808
:10092000A61008A611E53325E02408F8E6FE08E63F
:10093000B5110DE510B506080531E5317002053039
:10094000E511640D4510700CE53325E02412F8A67E
:100950001008A611E511640E45107026D2A2D2A38C
:10096000D2A4758040C2A2D2A3D2A4758040D2A2E4
:10097000C2A3D2A4758040C2A2C2A3D2A4758040F3
:1009800080DAE511640F4510701BF532F533E52769
:1009900064014526600302083AF528752901F52609
:1009A000F52702083AE59064F0601EC3E53594F43B
:1009B000E5346480948150117F647E00120CAA0596
:1009C00035E53570E0053480DCE4F534F535D2A248
:1009D000D2A3D2A4851A10851B117580407F0F7E8B
:1009E00000120CAAE5334532605AC2A2D2A3D2A4A7
:1009F000851C10851D117580407F0F7E00120CAA8A
:100A0000E53364014532603CD2A2C2A3D2A4851E64
:100A100010851F117580407F0F7E00120CAAE533F0
:100A200064024532601EC2A2C2A3D2A485201085F2
:100A300021117580407F0F7E00120CAAE5336403FC
:100A40004532708AE59064F060847F647E00120C09
:100A5000AAE59064F070030209CE0533E533700215
:100A60000532E53364044532600302083AE52B643D
:100A700001452A7009F52C752D01F52AF52BE53174
:100A8000640445306008052FE52F7002052EE590BF
:100A900064F0601EC3E53594F4E5346480948150BD
:100AA000117F647E00120CAA0535E53570E005342F
:100AB00080DCE4F534F535E5256404452470587F81
:100AC0000FFE120CAA85120885130985140A8515D4
:100AD0000B85160C85170D85180E85190F851A10B4
:100AE000851B11851C12851D13E4F524F525F52CB5
:100AF000F52DF52EF52FF522752301B2A57F0F7E7A
:100B000000120CAA0523E52370020522C39464E5B4
:100B1000226480948040E4D2A2D2A3D2A4C2A2D202
:100B2000A3D2A4D2A2C2A3D2A4C2A2C2A3D2A4E539
:100B300031640445307027F52EF52F900CE193F5C4
:100B400080752600752701E52964014528600302A8
:100B50000BEDF52A752B01F528F529020BEDE4F5CF
:100B600080D2A2D2A3D2A4C2A2D2A3D2A4D2A2C221
:100B7000A3D2A4C2A2C2A3D2A4758076E52F640337
:100B8000452E7069C2A0F536F537758C3C758AB074
:100B9000D28CB2A5D2A2D2A3D2A4900CE1120CA204
:100BA000C2A2D2A3D2A4120CA2D2A2C2A3D2A412D5
:100BB0000CA2C2A2C2A3D2A4120CA2D2A2120C9E58
:100BC000C2A2120C9ED2A2C2A3120CA0C2A2C2A3A5
:100BD000120CA00537E53770020536C39464E5367C
:100BE0006480948040A4E4F52EF52FD2A0E59064B3
:100BF000F07003020B177F647E00120CAAE590646C
:100C0000F07003020B17E4F532F533F530F53102DD
:100C1000083A787FE4F6D8FD758137020C5902084E
:100C200000E493A3F8E493A34003F68001F208DF05
:100C3000F48029E493A3F85407240CC8C333C454A4
:100C40000F4420C8834004F456800146F6DFE48058
:100C50000B0102040810204080900CCAE47E01932E
:100C600060BCA3FF543F30E509541FFEE493A3602A
:100C7000010ECF54C025E060A840B8E493A3FAE485
:100C800093A3F8E493A3C8C582C8CAC583CAF0A3D6
:100C9000C8C582C8CAC583CADFE9DEE780BED2A361
:100CA000C2A4E493F5807F327E00EF1FAA06700194
:100CB0001E4A6015E4FCFDC3ED940CEC6480948046
:100CC00050E80DBD00010C80EE2202100000080863
:100CD0000006000600060006003F065B4F666D7DBD
:030CE000077F6F1C
:00000001FF
