:0300000002106982
:10080000752200752301E4F524F525F526F527F575
:1008100028F529F52AF52BF52CF52DF52EF52FF5D4
:1008200030F531F532F533F534F535F536F537C2B7
:10083000A553890F43890175A00312116175900FAB
:10084000E590640F7003020A757F647E0012110147
:10085000E590640F7003020A75E5327025E53314E4
:10086000600E14601314601424037016D2A2800268
:10087000C2A2D2A3D2A4800AD2A28002C2A2C2A3E0
:10088000D2A475900FAF90EF24F5601224FE60168D
:1008900014601B2407701DE4F554F555801675543B
:1008A00000755501800E755400755502800675540B
:1008B000007555037590F0AF90EF2450601424E05C
:1008C000601424F060142470701B855454855555B1
:1008D00080137404800674088002740C2555F55545
:1008E000E43554F554AF33EF25E0245EF8A6540800
:1008F000A655E52B6401452A700BEF25E02456F838
:10090000A65408A655EF25E0244CF8E6FE08E6B507
:10091000550DE554B506080531E53170020530E5A1
:1009200055640C45547010E527640145267008F5A0
:100930002475250402083DE555640D45547028D200
:10094000A2D2A3D2A4F580C2A2D2A3D2A4F580D20F
:10095000A2C2A3D2A4F580C2A2C2A3D2A4F580F5FC
:100960002A752B0102083DE555640E45547026D2C8
:10097000A2D2A3D2A4758040C2A2D2A3D2A4758071
:1009800040D2A2C2A3D2A4758040C2A2C2A3D2A464
:1009900075804080DAE555640F4554701BF532F5DB
:1009A00033E52764014526600302083DF5287529D3
:1009B00001F526F52702083DE59064F0601EC3E5C9
:1009C0003594F4E5346480948150117F647E001284
:1009D00011010535E53570E0053480DCE4F534F5CA
:1009E00035D2A2D2A3D2A4855E54855F55758040CE
:1009F0007F0F7E00121101E5334532605AC2A2D248
:100A0000A3D2A48560548561557580407F0F7E0018
:100A1000121101E53364014532603CD2A2C2A3D277
:100A2000A48562548563557580407F0F7E00121146
:100A300001E53364024532601EC2A2C2A3D2A4857E
:100A400064548565557580407F0F7E00121101E565
:100A50003364034532708AE59064F060847F647E7D
:100A600000121101E59064F070030209E10533E51D
:100A70003370020532E53364044532600302083DF9
:100A8000E52B6401452A7009F52C752D01F52AF531
:100A90002BE531640445306008052FE52F70020511
:100AA0002EE59064F0601EC3E53594F4E53464806F
:100AB000948150117F647E001211010535E5357077
:100AC000E0053480DCE4F534F535E525640445249F
:100AD0006003020B627F0FFE12110185564C855791
:100AE0004D85584E85594F855A50855B51855C52CE
:100AF000855D537BFF7A117948120CE1E4F534F5FA
:100B0000357BFF7A117952E53525E0244CF8E6F57E
:100B10003B08E6F53C120CE10535E535700205347D
:100B2000C39404E5346480948040D67BFF7A1179C5
:100B300055120CE1E4F524F525F52CF52DF52EF5EF
:100B40002FF522752301B2A57F0F7E00121101053A
:100B500023E52370020522C39464E5226480948017
:100B600040E4D2A2D2A3D2A4C2A2D2A3D2A4D2A23F
:100B7000C2A3D2A4C2A2C2A3D2A4E5316404453068
:100B80007049F522752301B2A57F0F7E0012110175
:100B90000523E52370020522C3940AE522648094AC
:100BA0008040E4E4F52EF52F90115F93F5807526D3
:100BB00000752701E529640145286003020C5AF5F8
:100BC0002A752B01F528F529020C5AE4F580D2A2EA
:100BD000D2A3D2A4C2A2D2A3D2A4D2A2C2A3D2A48C
:100BE000C2A2C2A3D2A4758076E52F6403452E70FD
:100BF00069C2A0F536F537758C3C758AB0D28CB2D7
:100C0000A5D2A2D2A3D2A490115F1210F9C2A2D28F
:100C1000A3D2A41210F9D2A2C2A3D2A41210F9C274
:100C2000A2C2A3D2A41210F9D2A21210F5C2A2122B
:100C300010F5D2A2C2A31210F7C2A2C2A31210F7DB
:100C40000537E53770020536C3940AE536648094AB
:100C50008040A4E4F52EF52FD2A0E59064F0700357
:100C6000020B627F647E00121101E59064F0700354
:100C7000020B62E4F532F533F530F53102083DE55B
:100C800047243BF8E60547227838300702783BE4F2
:100C900075F001121033020FDB2000EB7F2ED20023
:100CA0008018EF540F2490D43440D4FF30040BEF5D
:100CB00024BFB41A0050032461FFE54860021548C0
:100CC000054BE54B7002054A30070D7838E475F0A6
:100CD00001121033EF0210210211217403D2078098
:100CE00003E4C207F5478B388A39893AE4F548F5B9
:100CF0004AF54BE54860077F20120CBA80F575492C
:100D0000FFC201C200C202C203C205C206C208126B
:100D10000C88FF700D3007057F00120CCBAF4BAE77
:100D20004A22B4255FC2D5C204120C88FF24D0B475
:100D30000A00501A75F00A784830D50508B6FF0148
:100D400006C6A426F620D5047002D20380D924CF8B
:100D5000B41A00EF5004C2E5D204020ECBD20180D7
:100D6000C6D20080C0D20280BCD2D580BAD2058063
:100D7000B47F20120CBA2002077401B5480040F17C
:100D8000120C7FFF120CBA020CF3D208D206809527
:100D9000120C7FFB120C7FFA120C7FF94A4B700683
:100DA000799C7A0F7BFF20022EE548602A7E008E18
:100DB00082758300120FF460060EEE654970F0C272
:100DC000D5EBC0E0EAC0E0E9C0E0EE120F12D0E0DF
:100DD000F9D0E0FAD0E0FB120FDBFF60AAEBC0E035
:100DE000EAC0E0E9C0E0120CBAD0E02401F9D0E09A
:100DF0003400FAD0E0FBE5490460DCD549D98087AE
:100E00007BFF7A0F790ED202809C791080027908DC
:100E1000C206C2088008D2D5790A8004790AC2D5F0
:100E2000E549047002F549E4FAFDFEFF120C7FFC6F
:100E30007B08200113120C7FFD7B1030000A120C7E
:100E40007FFE120C7FFF7B20EC3382D592D55013AE
:100E5000C3E43000069FFFE49EFEE42001039DFDF5
:100E6000E49CFCE4CBF8C201EC700CCFCECDCCE816
:100E700024F8F870F38017C3EF33FFEE33FEED3341
:100E8000FDEC33FCEB33FB994002FB0FD8E9EB3070
:100E90000105F8D0E0C448B201C0E00AEC4D4E4F65
:100EA00078207B0070C2EAB5490040BCC0E0120F58
:100EB00014D0F0D0E0200104C4C0E0C4B201C0F0FE
:100EC000120CA3D0F0D5F0EB020CF31210430D90EE
:100ED000530E0A580D614C0D5D420E0E4F0E164416
:100EE0000E16490D76430E1C550E00460E00450E9B
:100EF00000470FBC500D652D0D692E0D8C2B0D6D0F
:100F0000230D8A200FA52A0D254800000D843F3FA0
:100F10003F00790AA2D5200314300509B910020454
:100F200004B9080104A2D520060250010420026879
:100F30009202B548005034C0E07F203003197F3062
:100F4000A20272067205500F120F6BC202C206C2D5
:100F500005C2087F30800F300503E9C0E0120CBAEB
:100F6000300503D0E0F9D0E0B548CC3005177F302C
:100F7000B9100C120CBA7F583004077F788003B97F
:100F80000803120CBA3002057F2D020CBA7F202014
:100F900008F87F2B2006F322920280CF286E756C12
:100FA0006C2900D201120C7F3001F8C20178483060
:100FB000D50108F6020D252D50434958120C7F2407
:100FC00003B405004001E4900FB793120CAB743AE0
:100FD000120CABD203754804020E0ABB01068982CB
:100FE0008A83E0225002E722BBFE02E32289828A42
:100FF00083E49322BB010CE58229F582E5833AF56F
:1010000083E0225006E92582F8E622BBFE06E925A8
:1010100082F8E222E58229F582E5833AF583E493BA
:1010200022BB010689828A83F0225002F722BBFE8E
:1010300001F322FAE6FB0808E6F925F0F618E6CAFD
:101040003AF622D083D082F8E49370127401937040
:101050000DA3A393F8740193F5828883E47374025B
:10106000936860EFA3A3A380DF787FE4F6D8FD75D3
:1010700081650210B0020800E493A3F8E493A34052
:1010800003F68001F208DFF48029E493A3F8540703
:10109000240CC8C333C4540F4420C8834004F456FE
:1010A000800146F6DFE4800B010204081020408036
:1010B000901178E47E019360BCA3FF543F30E509B2
:1010C000541FFEE493A360010ECF54C025E060A836
:1010D00040B8E493A3FAE493A3F8E493A3C8C582C9
:1010E000C8CAC583CAF0A3C8C582C8CAC583CADF37
:1010F000E9DEE780BED2A3C2A4E493F5807F327E0E
:1011000000EF1FAA0670011E4A6015E4FCFDC3ED46
:10111000940CEC6480948050E80DBD00010C80EECE
:1011200022EFB40A07740D12112C740A309811A81A
:1011300099B8130CC2983098FDA899C298B811F6C6
:101140003099FDC299F5992272696768745B695D8F
:101150003D002564000A003F065B4F666D7D077FFA
:101160006F758920758DFD758BFDD28E759850E455
:10117000F58775A890D2992202540000084C000609
:071180000006000600060056
:00000001FF
